:020000040800F2
:10000000201F0020B10E00085D02000861020008F8
:1000100065020008690200086D0200080000000087
:100020000000000000000000000000007102000855
:100030007502000800000000790200087B02000839
:10004000CB0E0008CB0E0008CB0E0008CB0E00082C
:10005000CB0E0008CB0E0008CB0E0008CB0E00081C
:10006000CB0E0008CB0E0008CB0E0008CB0E00080C
:10007000CB0E0008CB0E0008CB0E0008CB0E0008FC
:10008000CB0E0008CB0E0008CB0E0008CB0E0008EC
:10009000CB0E0008CB0E0008CB0E0008CB0E0008DC
:1000A000CB0E0008CB0E0008CB0E0008CB0E0008CC
:1000B000CB0E0008CB0E0008CB0E0008CB0E0008BC
:1000C000CB0E0008CB0E0008CB0E0008CB0E0008AC
:1000D000CB0E000809060008CB0E0008CB0E000866
:1000E000CB0E0008CB0E0008CB0E000800F002F883
:1000F00000F05AF80AA090E8000C82448344AAF168
:100100000107DA4501D100F04FF8AFF2090EBAE865
:100110000F0013F0010F18BFFB1A43F0010318473B
:100120006C2400008C2400000A444FF0000C10F8EE
:10013000013B13F0070408BF10F8014B1D1108BF65
:1001400010F8015B641E05D010F8016B641E01F805
:10015000016BF9D113F0080F1EBF10F8014BAD1C55
:100160000C1B09D16D1E58BF01F801CBFAD505E073
:1001700014F8016B01F8016B6D1EF9D59142D6D3CD
:10018000704700000023002400250026103A28BFF5
:1001900078C1FBD8520728BF30C148BF0B607047F9
:1001A0001FB51FBD10B510BD02F0C0F81146FFF716
:1001B000F7FF00F019F802F0DEF803B4FFF7F2FFE2
:1001C00003BC00F0E9F80000EFF30980704780F30A
:1001D00009887047EFF30880704780F308887047FC
:1001E00040BA7047C0BA704790B03C2101A802F0F5
:1001F00072F800BF00F054F826E01448006828B1F7
:100200003A2101A8124A1268904702E000208DF8B6
:1002100004009DF8040010B101A800F0F1FC0520D5
:1002200000F087F80B48007820B90B480068401CA4
:10023000094908600848006800EB800041F28831F5
:10024000884201D900F08DFBD7E700002001214250
:1002500018000020240800200000002000F00EF804
:1002600000F00CF800F00AF800F008F800F006F8CA
:1002700000F004F800F002F8704770470648006884
:1002800000F4E06005490843001D03490860BFF31E
:10029000408F00BFFEE700000CED00E00000FA0513
:1002A00010B500F073F800F007F84FF4E13000F0FB
:1002B00047F900F02DFA10BD10B56FF0040001F001
:1002C000EAFB2E4800682E49B0FBF1F02D4908707A
:1002D0000846007800EB4001C1EBC0104FF6FF71FB
:1002E00001EAC0002849088010BD0146254A12785D
:1002F0004A434FF0E0235A6100229A611A4612697C
:1003000042F001021A6100BF4FF0E022106900F0D4
:1003100001021AB100F48032002AF5D04FF0E02239
:10032000126922F001024FF0E0231A6100229A6163
:1003300070470146144A12884A434FF0E0235A613D
:1003400000229A611A46126942F001021A6100BF46
:100350004FF0E022106900F001021AB100F480327F
:10036000002AF5D04FF0E022126922F001024FF08E
:10037000E0231A6100229A617047000034080020CF
:1003800000127A00040000200600002010B54FF48F
:10039000A06001F031FB10BD014600BF704700BFF7
:1003A000CF4A128802F04002002AF9D0C2B2CC4BE8
:1003B0001B1D1A807047CB490988642904DACA4991
:1003C000C84A1288885C05E00021C64A1180C649E7
:1003D0001288885C0021C54A1160C34AC14B1B8842
:1003E000D154C349098821B1C1490988491EC04A6D
:1003F00011800121BD4A1160BA490988491CB94AD6
:1004000011807047B74A1278521CD1B2642902DABF
:10041000B54A505C02E00021B34A505C7047B149D4
:100420000988642904DAB049AE4A1288885C05E07C
:100430000021AC4A1180AC491288885C70472DE9D4
:10044000F04106460F460024002500BF03E00020CF
:100450003055601C84B2BC42F9DB06E0681C85B2F2
:1004600042F21070854200DD03E0A24800780028C7
:10047000F4D000BFA0480068002838D00024002530
:1004800015E0FFF7CCFFFF2804D1FFF7BBFFFF28E3
:1004900000D10EE0FFF7C3FFF02804D1FFF7B2FF51
:1004A000FE2800D105E0FFF786FF681C85B2642DA9
:1004B000E7DB00BF002407E0FFF77DFF3055601C3D
:1004C00084B2BC4200D103E0894800880028F3D1FF
:1004D00000BF8748008850B90020824908808349BE
:1004E00008608649088001208549C1F894012046AA
:1004F000BDE8F08110B500207E4908707C48008876
:10050000642817DA7648001D008877497B4A1288EC
:10051000885477480088401C7549088077480088CF
:10052000401C7649088008460088642807DB0020C4
:10053000088004E040F22551694801F03EF810BD02
:1005400010B586B00446AFF253006E490860AFF2B2
:1005500011106D490860012144F2040001F0E8F92E
:100560005F4800F073FE4FF40070ADF814000220F5
:100570008DF8160018208DF8170005A9634800F0C3
:1005800017FD4FF48060ADF8140004208DF81700BB
:1005900005A95E4800F00CFD25208DF80000002024
:1005A0008DF801008DF8020001208DF803006846E7
:1005B00001F027FA01940020ADF80800ADF80A0018
:1005C000ADF80C00ADF810000C20ADF80E000021C5
:1005D000434800F00AFF01A9414800F07AFE0122D9
:1005E00040F225513E4800F00CFF012240F2244128
:1005F0003B4800F006FF0121394800F0F6FE06B046
:1006000010BD3B480088704710B540F22551344872
:1006100000F0DCFF10B13B480068804740F2244105
:100620002F4800F0D3FF48B10120324908702C4810
:100630000088C4B22A48001D0088C4B240F2277165
:10064000274800F0C3FF20B140F22771244800F092
:10065000B4FF10BD70B504460D460DB9002070BD45
:100660000BE000BF80211E4800F09AFF0028F9D05F
:1006700020781B49091D0880641C2800A5F1010190
:10068000CDB2EED100BFEAE770B50446002547F6CB
:10069000FF76002240F22551114800F0B2FE10E032
:1006A00020210F4800F07CFF40B10D48001D00885C
:1006B0002070641C681CC5B247F6FF76642D00D11B
:1006C00004E03000A6F101018EB2E9D100BF0122A1
:1006D00040F22551024800F094FE284670BD00000B
:1006E000003801400C0000205C08002094012742E3
:1006F0001400002016000020200121420E000020DE
:10070000000027421C0000201800002000080140C3
:1007100008B50121042001F00BF9002240F2255117
:100720004E4800F06EFE10208DF8030003208DF877
:1007300002004FF40060ADF8000010208DF80300B7
:100740006946474800F034FC4FF48050ADF8000093
:1007500010208DF803006946414800F029FC4FF451
:100760008070ADF8000004208DF8030069463C4815
:1007700000F01EFC00203B4908603B49C1F8B00175
:10078000012240F22551354800F03BFE0120354959
:100790008C39086008BD2DE9F04104460D46164627
:1007A0001F464FF47A7802E00120FFF7C2FD5FEAAE
:1007B0000800A8F101011FFA81F804D029488C38FB
:1007C00000680028F0D0B8F1000F03D14FF6FF7099
:1007D000BDE8F08100BF8021204800F0E1FE002844
:1007E000F9D020121D49091D088000BF80211B4837
:1007F00000F0D6FE0028F9D0E0B21849091D0880A3
:1008000000BF8021154800F0CBFE0028F9D0134826
:10081000001D0580F9B23046FFF71CFF00BFD7E787
:1008200070B506460C464FF47A7502E00120FFF7DA
:1008300080FD2800A5F101018DB204D009488C3853
:1008400000680028F2D015B94FF6FF7070BDE1B214
:100850003046FFF7FFFE00BFF8E700000038014018
:1008600000080140AC01214200002142F0B50B46D6
:10087000FF24FF2509E010F8016B86EA0401154EFC
:10088000765C86EA0504144E755C1E00A3F1010730
:10089000BBB2F0D114705570F0BD30B502460B46B6
:1008A000002010E012F8014B6040002109E000F048
:1008B00001041CB18C2484EA600000E040104C1C50
:1008C000E1B20829F3DB1C00A3F10105ABB2E9D1C9
:1008D00030BD00008C2300088C24000830B587B0A0
:1008E00004460D46142102A801F0F5FC00200190F9
:1008F000FF208DF808008DF80900A0788DF80A0017
:10090000E0788DF80B00207940F080008DF80C0025
:1009100000208DF80D0002208DF80E0028128DF8B1
:100920000F00E8B28DF810009DF80E00C11D01AA5D
:1009300002A8FFF79BFF9DF804109DF80E00C01D54
:1009400002AA11549DF805109DF80E0008301154AC
:100950009DF80E0000F1090102A8FFF761FF07B042
:1009600030BD10B5CE480068CE490840B0F1005FF8
:100970000BD1CB48001D0068CB490860C849086806
:10098000FFF72BFCC8480068804710BD2DE9F047F1
:1009900005460027B84600260024C44800780128F0
:1009A00079D1C3480088401CC1490880687A297AF7
:1009B00040EA0127E87AA97A40EA0120BD49088087
:1009C000BB480088874208DD0C212846FFF786FFD8
:1009D0000020B6490870BDE8F087B5480088874216
:1009E00009DA00212846FFF779FFB1480088401E48
:1009F000AF490880EFE7A879697940EA0120401FF4
:100A00001FFA80F8002651E006F10C00285CAA4984
:100A1000AA4A12888854A9480088401CA74908801F
:100A2000A748008880B2FF281ED808460088B0F585
:100A3000806F39DB002008804FF400729E49A14886
:100A4000006801F04CFB9F48006800F580609D49FC
:100A50000860002404E0002097490855601C84B217
:100A6000B4F5006FF7DB1FE094480088B0F5006F25
:100A70001ADB0020914908804FF480628E4991482A
:100A8000006801F02CFB8F48006800F500608D497C
:100A90000860002405E03BE0002087490855601C01
:100AA00084B2B4F5006FF7DB701C86B24645ABDB51
:100AB0007F4800887F49098888421CD17F48B0F868
:100AC000009009EBD97042107B497E48006801F024
:100AD00006FB0020794908807A490860002404E078
:100AE000002075490855601C84B2B4F5006FF7DB2F
:100AF00000206E49087000212846FFF7EFFE3220E3
:100B0000FFF717FC6948007830B9FFF72AFF03E0C8
:100B100006212846FFF7E2FE00BF5CE770B50446F9
:100B200000260025607A217A40EA0126A07A000694
:100B3000E17A40EA0140217B40EA0120617B0843E1
:100B40006049086008460068554988420AD35C48F5
:100B5000008880B24FF0006101EB8020594909689C
:100B6000884204D20B212046FFF7B8FE70BD5548DD
:100B700000684B49411A54480088C1EB8020B042BC
:100B800004D203212046FFF7A9FEEFE7002504E089
:100B9000002049494855681C85B2B5F5006FF7DB60
:100BA00000204349088043490880444908800120C7
:100BB0003E49087000212046FFF790FE00BFD5E7B0
:100BC000704710B50446E07930B1012808D00228FA
:100BD0000AD003280DD108E02046FFF7F1FF0DE011
:100BE0002046FFF79BFF09E008E02046FFF7CEFE16
:100BF00004E002212046FFF771FE00BF00BF10BDD8
:100C0000F8B5044600250020009000262E480088F4
:100C100020B92B4800880A382B4908802078FF2803
:100C20001CD16078FF2819D1A079617940EA0120B0
:100C3000C01D85B2382D00DDF8BD6A462946204624
:100C4000FFF714FE605D9DF80010884206D1681C15
:100C5000205C9DF80110884200D101267EB12079E8
:100C6000052806D10020194908602046FFF7A9FF92
:100C700004E005212046FFF731FE00BF00BF00BFA2
:100C8000DAE7002100BF06E00B48405C08B1012014
:100C90007047481C81B2B1F5006FF5DB0020F7E723
:100CA000002800080000FE2F300800202408002043
:100CB0002C0800202E0800202200002022080020FE
:100CC000E0F7FF1F2808002020000020000000207F
:100CD0000CB50020019000906C48006840F4803012
:100CE0006A49086000BF6948006800F4003000905D
:100CF0000198401C0190009818B90198B0F5A06FB8
:100D0000F1D16248006800F4003010B10120009079
:100D100001E0002000900098012843D15C48006861
:100D200040F010005A4908600846006820F00300AF
:100D300008600846006840F00200086053484068B8
:100D4000524948600846406848600846406840F498
:100D5000806048600846406820F47C10486008467F
:100D6000406840F4E81048600846006840F0807031
:100D7000086000BF4548006800F000700028F9D006
:100D80004248406820F003004049486008464068F7
:100D900040F00200486000BF3C48406800F00C0092
:100DA0000828F9D10CBD10B5FFF792FF10BD10B5A2
:100DB0003648006840F00100344908600846406841
:100DC00034490840314948600846006832490840C3
:100DD0002E4908600846006820F480200860084614
:100DE000406820F4FE0048604FF41F008860FFF761
:100DF000DAFF4FF000602949086010BD10B50021EE
:100E000000200022214B5B6803F00C0121B1042972
:100E100006D0082928D107E0214B224C236027E087
:100E20001F4B204C236023E0184B5B6803F47010C9
:100E3000164B5B6803F48032022303EB904022B927
:100E4000194B4343174C23600DE0104B5B6803F4D0
:100E5000003323B1144B4343124C236003E0104B87
:100E60004343104C236003E00D4B0E4C236000BF46
:100E700000BF064B5B68C3F303130C4CE15C094BEA
:100E80001B68CB40074C236010BD000000100240DF
:100E9000002002400000FFF8FFFFF6FE08ED00E032
:100EA00000127A003408002000093D0038080020B4
:100EB0000948804709480047FEE7FEE7FEE7FEE7EE
:100EC000FEE7FEE7FEE7FEE7FEE7FEE7044805492A
:100ED000054A064B70470000AF0D0008ED00000802
:100EE00020190020201F0020201B0020201B002094
:100EF00010B50446CC48844208D10121042000F0FA
:100F000031FD0021042000F02DFD46E0C748844259
:100F100008D10121082000F025FD0021082000F063
:100F200021FD3AE0C248844208D10121102000F09E
:100F300019FD0021102000F015FD2EE0BD4884426F
:100F400008D10121202000F00DFD0021202000F01B
:100F500009FD22E0B848844208D10121402000F078
:100F600001FD0021402000F0FDFC16E0B348844262
:100F700008D10121802000F0F5FC0021802000F044
:100F8000F1FC0AE0AE48844207D10121801500F04F
:100F9000E9FC0021A01500F0E5FC10BD10B5012111
:100FA000084600F0DFFC0021012000F0DBFC10BD52
:100FB0002DE9F041024600250026002000230024F0
:100FC000002791F803C00CF00F0591F803C00CF056
:100FD000100CBCF1000F03D091F802C04CEA0505DB
:100FE00091F800C0BCF1000F31D0146800202BE054
:100FF0004FF0010C0CFA00F3B1F800C00CEA030644
:101000009E4220D183004FF00F0C0CFA03F7BC4333
:1010100005FA03FC4CEA040491F803C0BCF1280F64
:1010200006D14FF0010C0CFA00FCC2F814C00AE023
:1010300091F803C0BCF1480F05D14FF0010C0CFA38
:1010400000FCC2F810C0401C0828D1D31460B1F8CD
:1010500000C0BCF1FF0F34DD546800202EE000F129
:10106000080C4FF0010808FA0CF3B1F800C00CEAC4
:1010700003069E4221D183004FF00F0C0CFA03F7B8
:10108000BC4305FA03FC4CEA040491F803C0BCF12C
:10109000280F05D100F1080C08FA0CF8C2F81480EA
:1010A00091F803C0BCF1480F07D100F1080C4FF0D4
:1010B000010808FA0CF8C2F81080401C0828CED3AA
:1010C0005460BDE8F0814FF6FF710180022181700C
:1010D0000421C17070470246002093680B400BB199
:1010E000012000E0002070470146886880B2704708
:1010F00002460020D3680B400BB1012000E0002025
:1011000070470146C86880B270470161704741610D
:1011100070470AB1016100E041617047C1607047EA
:101120004FF480320A4382618161826182698269FF
:10113000704702460020434B18684FF680731840F2
:1011400040EA021008433F4B186070473E49C861AF
:101150007047F0B50A46002300240021002500F066
:101160000046B6F1004F02D1364EF16901E0354E2E
:101170007168C0F3034583B200F44016B6F5401F12
:1011800008D121F070612F4E766826F070662D4FE1
:101190007E6012E000F48016B6F5801F06D10326AB
:1011A00006FA05F4A14341F0706106E0460D3601F0
:1011B00003FA06F6B14341F0706122B1460D3601E3
:1011C00003FA06F6314300F00046B6F1004F02D1B3
:1011D0001C4EF16101E01B4E7160F0BD30B5002284
:1011E0008B071C0F0F2303FA04F2164B08338C10E5
:1011F00053F824309343134C08348D1044F82530B1
:1012000023468C1053F824308C07240F00FA04F482
:1012100023430C4C08348D1044F8253030BD0A4966
:10122000DC3108607047000000080140000C0140FC
:10123000001001400014014000180140001C014052
:1012400000200140000001400000204210B504468B
:10125000FB48844209D10121880300F083FB00216F
:101260004FF4804000F07EFB32E0F648844209D122
:101270000121480400F083FB00214FF4003000F00E
:101280007EFB25E0F048844209D10121880400F06A
:1012900076FB00214FF4802000F071FB18E0EB4852
:1012A000844209D10121C80400F069FB00214FF4F8
:1012B000002000F064FB0BE0E548844208D10121E6
:1012C000080500F05CFB00214FF4801000F057FB94
:1012D00010BD2DE9F04786B005460E460024A24613
:1012E00000BFA1460027B08900B100BF2F462C8A5D
:1012F0004CF6FF700440F08804432C82AC894EF613
:10130000F3100440B08831890843718908430443CD
:10131000AC81AC8A4FF6FF400440B0890443AC82F4
:1013200001A800F098FAC648874202D1DDF810A063
:1013300001E0DDF80CA0A88900F4004040B10AEB00
:10134000CA0000EB0A1031684900B0FBF1F807E071
:101350000AEBCA0000EB0A1031688900B0FBF1F813
:101360006420B8FBF0F004012009642101FB10891E
:10137000A88900F4004040B1322000EBC900B0FB66
:10138000F1F000F00700044308E0322000EB091000
:101390006421B0FBF1F000F00F0004432C8106B093
:1013A000BDE8F0874FF41651016000218180C180B3
:1013B00001810C21418100218181704710B50246D5
:1013C0000020108A4FF2FF0318400B884C882343FB
:1013D0008C882343CC8823431843108210BD0021FE
:1013E000018041808180C180704721B1828942F4AF
:1013F0000052828104E082894DF6FF731A40828197
:101400007047F0B50346002400260025002040F672
:101410006A17B94200D100BF1846C1F3421401F067
:101420001F06012707FA06F5012C01D10C3004E054
:10143000022C01D1103000E014301AB107682F439C
:10144000076002E00768AF430760F0BD1AB1838A06
:101450000B43838202E0838A8B4383827047028A34
:101460004FF6F0731A400282028A0A4302827047E2
:1014700082894FF2FF731A40828182890A438281F6
:10148000704721B1828942F00202828104E08289A0
:101490004FF6FD731A4082817047028A4FF6DF7360
:1014A0001A400282028A0A430282704721B1028AEC
:1014B00042F48042028204E0028A4BF6FF731A4033
:1014C00002827047C1F30802828070470146888813
:1014D000C0F308007047818941F0010181817047A4
:1014E000028BD2B20283028B42EA0122028370474E
:1014F000028B02F47F420283028B0A43028370470D
:1015000021B1828A42F02002828204E0828A4FF670
:10151000DF731A408282704721B1828A42F0100242
:10152000828204E0828A4FF6EF731A40828270470B
:1015300021B1828A42F00802828204E0828A4FF658
:10154000F7731A408282704721B1828942F40042C7
:10155000828103E08289C2F30E028281704721B149
:10156000828A42F40062828204E0828A4FF2FF7330
:101570001A4082827047828A4FF6FB731A40828239
:10158000828A0A438282704721B1828A42F0020233
:10159000828204E0828A4FF6FD731A40828270478D
:1015A00002460020B1F5007F00D100BF13880B4038
:1015B0000BB1012000E00020704701F40072B2F589
:1015C000007F00D100BFCA430280704770B5024659
:1015D000002400230025002040F66A16B14200D105
:1015E00000BFC1F3421501F01F03012606FA03F301
:1015F000012D02D19689334006E0022D02D1168AD0
:10160000334001E0968A33400C12012606FA04F4B6
:101610001688344013B10CB1012000E0002070BDE9
:1016200010B50022002340F66A14A14200D100BF89
:101630000A1201249440A3B2DC43048010BD0000D0
:10164000003801400044004000480040004C004089
:1016500000500040DF48006840F00100DD490860AC
:1016600008464068DC490840DA4948600846006896
:10167000DA490840D74908600846006820F480200D
:1016800008600846406820F4FE0048604FF41F00E0
:1016900088607047CF49096821F48031CD4A1160D4
:1016A0001146096821F480211160B0F5803F03D014
:1016B000B0F5802F0ED106E0C649096841F48031AB
:1016C000C44A116007E0C349096841F4A021C14A36
:1016D000116000E000BF00BF704710B50146002256
:1016E000002300204A11012A02D1BA4C236806E0E7
:1016F000022A02D1B74C236A01E0B64C636A01F0BA
:101700001F02012494401C400CB1012000E0002085
:1017100010BD38B5002000900024002500BF312006
:10172000FFF7DBFF05460098401C00900098B0F5DD
:10173000A06F01D0002DF2D03120FFF7CEFF08B10D
:10174000012400E00024204638BD01460020A14AC3
:10175000106820F0F80040EAC10010607047A0490E
:1017600008607047024600209A4B586820F47C10AD
:1017700042EA01031843974B58607047984908663E
:10178000704701460020934A506820F00300084348
:10179000506070478F48406800F00C007047014669
:1017A00000208C4A506820F0F000084350607047D9
:1017B00001460020874A506820F4E06008435060EA
:1017C000704701460020834A506820F4605040EA88
:1017D000C1005060704729B17E4A527A02437D4B66
:1017E0005A7204E07B4A527A82437A4B5A727047AB
:1017F0007B49D8310860704701460020754A50681F
:1018000020F440400843506070470021714A203264
:101810001170704A82F82010012802D004280AD1E1
:1018200004E001216B4A2032117005E00521694A6C
:101830002032117000E000BF00BF704769490860A6
:1018400070476449096A0143624A116270476549F9
:1018500044390860704730B500210022002400237D
:101860005C4D6D6805F00C0121B1042905D00829F3
:1018700023D105E05C4D056022E05B4D05601FE073
:10188000544D6D6805F47012524D6D6805F4803446
:10189000022505EB92421CB9544D554305600BE0FF
:1018A0004C4D6D6805F400351DB1504D5543056034
:1018B00002E04D4D5543056002E04B4D056000BF11
:1018C00000BF444D6D6805F0F0010909484D6B5C9F
:1018D0000568DD4045603F4D6D6805F4E061090A2B
:1018E000434D6B5C4568DD4085603A4D6D6805F49D
:1018F0006051C90A3E4D6B5C4568DD40C560354DA1
:101900006D6805F44041890B3A4D6B5CC568B5FBC9
:10191000F3F5056130BD29B12E4A526902432D4BC2
:101920005A6104E02B4A526982432A4B5A6170473C
:1019300029B1284A92690243264B9A6104E0254A5C
:1019400092698243234B9A61704729B1214AD26937
:101950000243204BDA6104E01E4AD26982431D4BE8
:10196000DA61704729B11B4AD2680243194BDA6029
:1019700004E0184AD2688243164BDA60704729B1F6
:10198000144A12690243134B1A6104E0114A1269A6
:101990008243104B1A617047124940390860704702
:1019A0000F49C86470470B49C87170470948406ABD
:1019B00040F0807007494862704701460020054AA0
:1019C00092680A400AB1012000E0002070470149F6
:1019D00088727047001002400000FFF8FFFFF6FE1B
:1019E000000042428004424200127A0000093D0099
:1019F000480800205808002031490143314A11604D
:101A0000704770B5002100230F22C47804B32D4C19
:101A1000246804F4E064C4F5E064210AC1F104031D
:101A2000CA40447804FA03F1847814402143090140
:101A3000254C0678A155047804F01F050124AC401C
:101A400005786D11AD0005F1E025C5F8004109E00C
:101A5000047804F01F050124AC401C4D0678761173
:101A600045F8264070BD1A4A0A400243154B1B1F19
:101A70001A60704739B1134A121D12680243114BA4
:101A80001B1D1A6006E00F4A121D126882430D4B9F
:101A90001B1D1A607047042808D14FF0E021096926
:101AA00041F004014FF0E022116107E04FF0E02126
:101AB000096921F004014FF0E02211617047000034
:101AC0000000FA050CED00E000E400E080E100E039
:101AD00080FFFF1F01460020FE4A106800F038001A
:101AE000084310607047FB49096821F00801F94A72
:101AF000116011460968014311607047F549096892
:101B000021F01001F34A1160114609680143116088
:101B10007047F148EF494860F04848607047EE4828
:101B2000EC494860ED4848607047EA48006940F079
:101B30008000E84908617047E648006940F080008D
:101B4000E449086170470420E249C96801F00101D5
:101B500009B101200EE0DF49C96801F0040109B1B3
:101B6000022007E0DB49C96801F0100109B1032038
:101B700000E00420704700B502460423FFF7E3FFAE
:101B8000034603E0FFF7DFFF0346521E012B01D19E
:101B9000002AF7D102B90523184600BD30B5044626
:101BA00004254FF43020FFF7E6FF0546042D17D13A
:101BB000C848006940F00200C6490861084644610F
:101BC000006940F0400008614FF43020FFF7D3FF78
:101BD0000546C048006941F6FD710840BD490861ED
:101BE000284630BD10B504244FF43020FFF7C3FF62
:101BF0000446042C16D1B748006940F00400B549EA
:101C000008610846006940F0400008614FF4302048
:101C1000FFF7B1FF0446AF48006941F6FB71084089
:101C2000AC490861204610BD00B502460423FFF709
:101C30008AFF034603E0FFF786FF0346521E012B8F
:101C400001D1002AF7D102B90523184600BD10B50D
:101C500004244FF43020FFF7E7FF0446042C16D18C
:101C60009C48006940F004009A49086108460069F0
:101C700040F0400008614FF43020FFF7D5FF0446E4
:101C80009448006941F6FB7108409249086120467A
:101C900010BD00208F49C96901F0020109B101207E
:101CA00000E00020704730B5A5250424FFF7F1FFC0
:101CB00000B100254FF43020FFF75DFF0446042CEF
:101CC0003AD185488349886084488860084600691D
:101CD00040F0200008610846006940F040000861BB
:101CE0004FF43020FFF747FF0446042C1BD17948FE
:101CF000006941F6DF7108407649086108460069CD
:101D000040F01000086176480580E002FFF733FFDD
:101D10000446052C10D06F48006941F6EF71084069
:101D20006C49086108E0052C06D06A48006941F654
:101D3000EF71084067490861204630BD78B5064616
:101D40000C46042500200090E802FFF714FF05462A
:101D5000042D24D15F48006940F001005D4908610D
:101D60003480E802FFF707FF0546042D10D1B01CB0
:101D70000090200C00990880E802FFF7FCFE054661
:101D80005448006941F6FE7108405249086106E076
:101D90005048006941F6FE7108404E4908612846E6
:101DA00078BD70B504460D460426F002FFF7E3FE49
:101DB0000646042E11D14748006940F0010045490C
:101DC00008612580F002FFF7D6FE0646414800690B
:101DD00041F6FE7108403F490861304670BD70B55C
:101DE00005460E460424E002FFF7C5FE0446042C17
:101DF00017D13948374988603848886008460069F3
:101E000040F0100008612E80E002FFF7B4FE0446A7
:101E1000052C06D02F48006941F6EF7108402D4986
:101E20000861204670BD2DE9F04304464FF6FF7669
:101E30003746B046B1460425E443E6B2C4F307276B
:101E4000C4F307484FEA1469E802FFF794FE054619
:101E5000042D49D120481F498860204888600846E1
:101E6000006940F010000861FF2E06D01C480830C1
:101E70000680E802FFF77FFE0546042D08D1FF2FFC
:101E800006D017480A300780E802FFF774FE0546BF
:101E9000042D0AD1B8F1FF0F07D011480C30A0F87B
:101EA0000080E802FFF767FE0546042D0AD1B9F16C
:101EB000FF0F07D00A480E30A0F80090E802FFF7A5
:101EC0005AFE0546052D0FD00248006941F6EF7114
:101ED000084007E00020024023016745AB89EFCDB1
:101EE00000F8FF1F664908612846BDE8F08330B559
:101EF000054604244FF43020FFF73DFE0446042C31
:101F000041D160485E4988605F4888600846006942
:101F100040F0200008610846006940F04000086178
:101F20004FF43020FFF727FE0446042C22D15448FA
:101F3000006941F6DF7108405149086108460069AF
:101F400040F0100008611DB100205049088002E0F7
:101F5000A5204E4908804FF43020FFF70CFE0446C0
:101F6000052C10D04648006941F6EF7108404449FD
:101F7000086108E0052C06D04148006941F6DF7190
:101F800008403F490861204630BDF0B505460E4681
:101F9000174604243B483A4988603B488860E00281
:101FA000FFF7E9FD0446042C19D13548006940F0DB
:101FB00010003349086147F0F800304328433349A3
:101FC000891C0880E002FFF7D6FD0446052C06D0E8
:101FD0002B48006941F6EF71084029490861204605
:101FE000F0BD2748C069800870472548006A7047DF
:101FF00000202349096801F0200109B1012000E017
:102000000020704729B11E4A126902431C4B1A6115
:1020100004E01B4A12698243194B1A61704701465A
:102020000020012908D1164AD26902F001020AB142
:10203000012008E0002006E0114AD2680A400AB1F7
:10204000012000E0002070470D49C860704704205F
:102050000B49C96801F0010109B101200EE00849EE
:10206000C96801F0040109B1022007E00449C96808
:1020700001F0100109B1032000E0042070470000C6
:102080000020024023016745AB89EFCD00F8FF1F18
:102090000146088870472DE9F04105460E4617466F
:1020A000002407E036F814102846FFF77AFEAD1C2E
:1020B000601C84B2BC42F5DBBDE8F08130B503465C
:1020C0000C461546002207E01846FFF7E1FF24F80A
:1020D00012009B1C501C82B2AA42F5DB30BD2DE9D8
:1020E000F84F07468A461646B7F1006F07D3774880
:1020F00000880004800900F10060B84201D8BDE802
:10210000F88FFFF706FDA7F1006B7048008880B2DA
:10211000FF2802D84FF4806001E04FF40060BBFB61
:10212000F0F86A48008880B2FF2802D84FF4806037
:1021300001E04FF40060BBFBF0F100FB11B04FEA8F
:1021400050096249098889B2FF2902D84FF4806199
:1021500001E04FF40061084601EBD071C9EB610169
:102160008CB2A64200DC3446A1E05849098889B205
:10217000FF2902D84FF4806101E04FF40061009123
:1021800001EBD171C1F34F025049098889B2FF298F
:1021900002D84FF4806101E04FF4006101FB08F1C7
:1021A00001F100604A49FFF789FF00250BE009EBC8
:1021B0000500474931F810004FF6FF71884200D002
:1021C00003E0681C85B2A542F1DB00BFA5423DDA01
:1021D0003E49098889B2FF2902D84FF4806101E0A5
:1021E0004FF4006101FB08F101F10060FFF7D6FC3C
:1021F000002508E03AF8150005EB0901344A22F8F9
:102200001100681C85B2A542F4DB3049098889B207
:10221000FF2902D84FF4806101E04FF40061009182
:1022200001EBD171C1F34F022849098889B2FF2916
:1022300002D84FF4806101E04FF4006101FB08F126
:1022400001F100602249FFF726FF04E022465146D3
:102250003846FFF720FFA64200D129E008F1010827
:102260004FF000090AEB440A2744301B86B2174995
:10227000098889B2FF2902D84FF4806101E04FF448
:10228000006101EBD171B6EB610F0FDD0F490988D9
:1022900089B2FF2902D84FF4806101E04FF4006158
:1022A000084601EBD071C1F34F0400E034465CE70F
:1022B00000BFFFF73AFC00BF21E713B50446012237
:1022C00001A92046FFF70BFF1CBD0000E0F7FF1F30
:1022D000C008002070474FF0000200B51346944636
:1022E0009646203922BFA0E80C50A0E80C50B1F16E
:1022F0002001BFF4F7AF090728BFA0E80C5048BF82
:102300000CC05DF804EB890028BF40F8042B08BF1F
:10231000704748BF20F8022B11F0804F18BF00F81B
:10232000012B70477047704770477047754600F043
:1023300029F8AE4605006946534620F00700854659
:1023400018B020B5FEF7C2FDBDE820404FF00006F2
:102350004FF000074FF000084FF0000B21F007018D
:10236000AC46ACE8C009ACE8C009ACE8C009ACE8D0
:10237000C0098D4670470446AFF300802046FDF744
:102380001CFF000000487047C018002000C18140B9
:1023900001C0804101C0804100C1814001C0804135
:1023A00000C1814000C1814001C0804101C0804125
:1023B00000C1814000C1814001C0804100C1814015
:1023C00001C0804101C0804100C1814001C0804105
:1023D00000C1814000C1814001C0804100C18140F5
:1023E00001C0804101C0804100C1814000C18140E5
:1023F00001C0804101C0804100C1814001C08041D5
:1024000000C1814000C1814001C0804101C08041C4
:1024100000C1814000C1814001C0804100C18140B4
:1024200001C0804101C0804100C1814000C18140A4
:1024300001C0804101C0804100C1814001C0804194
:1024400000C1814000C1814001C0804100C1814084
:1024500001C0804101C0804100C1814001C0804174
:1024600000C1814000C1814001C0804101C0804164
:1024700000C1814000C1814001C0804100C1814054
:1024800001C0804101C0804100C1814000C0C10144
:10249000C30302C2C60607C705C5C404CC0C0DCDD4
:1024A0000FCFCE0E0ACACB0BC90908C8D81819D944
:1024B0001BDBDA1A1EDEDF1FDD1D1CDC14D4D51574
:1024C000D71716D6D21213D311D1D010F03031F164
:1024D00033F3F23236F6F737F53534F43CFCFD3D94
:1024E000FF3F3EFEFA3A3BFB39F9F83828E8E92984
:1024F000EB2B2AEAEE2E2FEF2DEDEC2CE42425E534
:1025000027E7E62622E2E323E12120E0A06061A1A3
:1025100063A3A26266A6A767A56564A46CACAD6D53
:10252000AF6F6EAEAA6A6BAB69A9A86878B8B979C3
:10253000BB7B7ABABE7E7FBF7DBDBC7CB47475B5F3
:1025400077B7B67672B2B373B17170B050909151E3
:102550009353529296565797559594549C5C5D9D13
:102560005F9F9E5E5A9A9B5B995958988848498903
:102570004B8B8A4A4E8E8F4F8D4D4C8C44848545B3
:10258000874746868242438341818040AC250008CC
:10259000000000205C08000028010008DC2500087D
:1025A0005C080020C4160000840100080116B20176
:1025B000AAC80D01FF01FF01FF01FF01FF01FF019B
:1025C000FF01FFE184A24A0468090102030406072F
:0C25D00008090C69100500020406080050
:0400000508000EB130
:00000001FF
